{
  "_format": "hh-sol-artifact-1",
  "contractName": "Erc20",
  "sourceName": "contracts/ERC20.sol",
  "abi": [
    {
      "inputs": [
        {
          "internalType": "uint256",
          "name": "initialSupply",
          "type": "uint256"
        },
        {
          "internalType": "address",
          "name": "initialOwner",
          "type": "address"
        }
      ],
      "stateMutability": "nonpayable",
      "type": "constructor"
    },
    {
      "inputs": [
        {
          "internalType": "address",
          "name": "spender",
          "type": "address"
        },
        {
          "internalType": "uint256",
          "name": "allowance",
          "type": "uint256"
        },
        {
          "internalType": "uint256",
          "name": "needed",
          "type": "uint256"
        }
      ],
      "name": "ERC20InsufficientAllowance",
      "type": "error"
    },
    {
      "inputs": [
        {
          "internalType": "address",
          "name": "sender",
          "type": "address"
        },
        {
          "internalType": "uint256",
          "name": "balance",
          "type": "uint256"
        },
        {
          "internalType": "uint256",
          "name": "needed",
          "type": "uint256"
        }
      ],
      "name": "ERC20InsufficientBalance",
      "type": "error"
    },
    {
      "inputs": [
        {
          "internalType": "address",
          "name": "approver",
          "type": "address"
        }
      ],
      "name": "ERC20InvalidApprover",
      "type": "error"
    },
    {
      "inputs": [
        {
          "internalType": "address",
          "name": "receiver",
          "type": "address"
        }
      ],
      "name": "ERC20InvalidReceiver",
      "type": "error"
    },
    {
      "inputs": [
        {
          "internalType": "address",
          "name": "sender",
          "type": "address"
        }
      ],
      "name": "ERC20InvalidSender",
      "type": "error"
    },
    {
      "inputs": [
        {
          "internalType": "address",
          "name": "spender",
          "type": "address"
        }
      ],
      "name": "ERC20InvalidSpender",
      "type": "error"
    },
    {
      "inputs": [
        {
          "internalType": "address",
          "name": "owner",
          "type": "address"
        }
      ],
      "name": "OwnableInvalidOwner",
      "type": "error"
    },
    {
      "inputs": [
        {
          "internalType": "address",
          "name": "account",
          "type": "address"
        }
      ],
      "name": "OwnableUnauthorizedAccount",
      "type": "error"
    },
    {
      "anonymous": false,
      "inputs": [
        {
          "indexed": true,
          "internalType": "address",
          "name": "owner",
          "type": "address"
        },
        {
          "indexed": true,
          "internalType": "address",
          "name": "spender",
          "type": "address"
        },
        {
          "indexed": false,
          "internalType": "uint256",
          "name": "value",
          "type": "uint256"
        }
      ],
      "name": "Approval",
      "type": "event"
    },
    {
      "anonymous": false,
      "inputs": [
        {
          "indexed": true,
          "internalType": "address",
          "name": "previousOwner",
          "type": "address"
        },
        {
          "indexed": true,
          "internalType": "address",
          "name": "newOwner",
          "type": "address"
        }
      ],
      "name": "OwnershipTransferred",
      "type": "event"
    },
    {
      "anonymous": false,
      "inputs": [
        {
          "indexed": true,
          "internalType": "address",
          "name": "from",
          "type": "address"
        },
        {
          "indexed": true,
          "internalType": "address",
          "name": "to",
          "type": "address"
        },
        {
          "indexed": false,
          "internalType": "uint256",
          "name": "value",
          "type": "uint256"
        }
      ],
      "name": "Transfer",
      "type": "event"
    },
    {
      "inputs": [],
      "name": "MsgSender",
      "outputs": [
        {
          "internalType": "address",
          "name": "",
          "type": "address"
        }
      ],
      "stateMutability": "view",
      "type": "function"
    },
    {
      "inputs": [],
      "name": "Owner",
      "outputs": [
        {
          "internalType": "address",
          "name": "",
          "type": "address"
        }
      ],
      "stateMutability": "view",
      "type": "function"
    },
    {
      "inputs": [
        {
          "internalType": "address",
          "name": "owner",
          "type": "address"
        },
        {
          "internalType": "address",
          "name": "spender",
          "type": "address"
        }
      ],
      "name": "allowance",
      "outputs": [
        {
          "internalType": "uint256",
          "name": "",
          "type": "uint256"
        }
      ],
      "stateMutability": "view",
      "type": "function"
    },
    {
      "inputs": [
        {
          "internalType": "address",
          "name": "spender",
          "type": "address"
        },
        {
          "internalType": "uint256",
          "name": "value",
          "type": "uint256"
        }
      ],
      "name": "approve",
      "outputs": [
        {
          "internalType": "bool",
          "name": "",
          "type": "bool"
        }
      ],
      "stateMutability": "nonpayable",
      "type": "function"
    },
    {
      "inputs": [
        {
          "internalType": "address",
          "name": "account",
          "type": "address"
        }
      ],
      "name": "balanceOf",
      "outputs": [
        {
          "internalType": "uint256",
          "name": "",
          "type": "uint256"
        }
      ],
      "stateMutability": "view",
      "type": "function"
    },
    {
      "inputs": [],
      "name": "buy",
      "outputs": [
        {
          "internalType": "uint256",
          "name": "",
          "type": "uint256"
        }
      ],
      "stateMutability": "payable",
      "type": "function"
    },
    {
      "inputs": [],
      "name": "decimals",
      "outputs": [
        {
          "internalType": "uint8",
          "name": "",
          "type": "uint8"
        }
      ],
      "stateMutability": "view",
      "type": "function"
    },
    {
      "inputs": [
        {
          "internalType": "address",
          "name": "addr",
          "type": "address"
        },
        {
          "internalType": "uint256",
          "name": "amount",
          "type": "uint256"
        }
      ],
      "name": "mint",
      "outputs": [
        {
          "internalType": "bool",
          "name": "",
          "type": "bool"
        }
      ],
      "stateMutability": "nonpayable",
      "type": "function"
    },
    {
      "inputs": [],
      "name": "name",
      "outputs": [
        {
          "internalType": "string",
          "name": "",
          "type": "string"
        }
      ],
      "stateMutability": "view",
      "type": "function"
    },
    {
      "inputs": [],
      "name": "owner",
      "outputs": [
        {
          "internalType": "address",
          "name": "",
          "type": "address"
        }
      ],
      "stateMutability": "view",
      "type": "function"
    },
    {
      "inputs": [],
      "name": "renounceOwnership",
      "outputs": [],
      "stateMutability": "nonpayable",
      "type": "function"
    },
    {
      "inputs": [],
      "name": "symbol",
      "outputs": [
        {
          "internalType": "string",
          "name": "",
          "type": "string"
        }
      ],
      "stateMutability": "view",
      "type": "function"
    },
    {
      "inputs": [],
      "name": "totalSupply",
      "outputs": [
        {
          "internalType": "uint256",
          "name": "",
          "type": "uint256"
        }
      ],
      "stateMutability": "view",
      "type": "function"
    },
    {
      "inputs": [
        {
          "internalType": "address",
          "name": "to",
          "type": "address"
        },
        {
          "internalType": "uint256",
          "name": "value",
          "type": "uint256"
        }
      ],
      "name": "transfer",
      "outputs": [
        {
          "internalType": "bool",
          "name": "",
          "type": "bool"
        }
      ],
      "stateMutability": "nonpayable",
      "type": "function"
    },
    {
      "inputs": [
        {
          "internalType": "address",
          "name": "from",
          "type": "address"
        },
        {
          "internalType": "address",
          "name": "to",
          "type": "address"
        },
        {
          "internalType": "uint256",
          "name": "value",
          "type": "uint256"
        }
      ],
      "name": "transferFrom",
      "outputs": [
        {
          "internalType": "bool",
          "name": "",
          "type": "bool"
        }
      ],
      "stateMutability": "nonpayable",
      "type": "function"
    },
    {
      "inputs": [
        {
          "internalType": "address",
          "name": "newOwner",
          "type": "address"
        }
      ],
      "name": "transferOwnership",
      "outputs": [],
      "stateMutability": "nonpayable",
      "type": "function"
    }
  ],
  "bytecode": "0x60806040523480156200001157600080fd5b5060405162001f8738038062001f87833981810160405281019062000037919062000593565b806040518060400160405280600481526020017f4c4f4b49000000000000000000000000000000000000000000000000000000008152506040518060400160405280600381526020017f4c4b5400000000000000000000000000000000000000000000000000000000008152508160039081620000b591906200084a565b508060049081620000c791906200084a565b505050600073ffffffffffffffffffffffffffffffffffffffff168173ffffffffffffffffffffffffffffffffffffffff16036200013f5760006040517f1e4fbdf700000000000000000000000000000000000000000000000000000000815260040162000136919062000942565b60405180910390fd5b62000150816200016b60201b60201c565b506200016333836200023160201b60201c565b505062000a34565b6000600560009054906101000a900473ffffffffffffffffffffffffffffffffffffffff16905081600560006101000a81548173ffffffffffffffffffffffffffffffffffffffff021916908373ffffffffffffffffffffffffffffffffffffffff1602179055508173ffffffffffffffffffffffffffffffffffffffff168173ffffffffffffffffffffffffffffffffffffffff167f8be0079c531659141344cd1fd0a4f28419497f9722a3daafe3b4186f6b6457e060405160405180910390a35050565b600073ffffffffffffffffffffffffffffffffffffffff168273ffffffffffffffffffffffffffffffffffffffff1603620002a65760006040517fec442f050000000000000000000000000000000000000000000000000000000081526004016200029d919062000942565b60405180910390fd5b620002ba60008383620002be60201b60201c565b5050565b600073ffffffffffffffffffffffffffffffffffffffff168373ffffffffffffffffffffffffffffffffffffffff1603620003145780600260008282546200030791906200098e565b92505081905550620003ea565b60008060008573ffffffffffffffffffffffffffffffffffffffff1673ffffffffffffffffffffffffffffffffffffffff16815260200190815260200160002054905081811015620003a3578381836040517fe450d38c0000000000000000000000000000000000000000000000000000000081526004016200039a93929190620009da565b60405180910390fd5b8181036000808673ffffffffffffffffffffffffffffffffffffffff1673ffffffffffffffffffffffffffffffffffffffff16815260200190815260200160002081905550505b600073ffffffffffffffffffffffffffffffffffffffff168273ffffffffffffffffffffffffffffffffffffffff160362000435578060026000828254039250508190555062000482565b806000808473ffffffffffffffffffffffffffffffffffffffff1673ffffffffffffffffffffffffffffffffffffffff168152602001908152602001600020600082825401925050819055505b8173ffffffffffffffffffffffffffffffffffffffff168373ffffffffffffffffffffffffffffffffffffffff167fddf252ad1be2c89b69c2b068fc378daa952ba7f163c4a11628f55a4df523b3ef83604051620004e1919062000a17565b60405180910390a3505050565b600080fd5b6000819050919050565b6200050881620004f3565b81146200051457600080fd5b50565b6000815190506200052881620004fd565b92915050565b600073ffffffffffffffffffffffffffffffffffffffff82169050919050565b60006200055b826200052e565b9050919050565b6200056d816200054e565b81146200057957600080fd5b50565b6000815190506200058d8162000562565b92915050565b60008060408385031215620005ad57620005ac620004ee565b5b6000620005bd8582860162000517565b9250506020620005d0858286016200057c565b9150509250929050565b600081519050919050565b7f4e487b7100000000000000000000000000000000000000000000000000000000600052604160045260246000fd5b7f4e487b7100000000000000000000000000000000000000000000000000000000600052602260045260246000fd5b600060028204905060018216806200065c57607f821691505b60208210810362000672576200067162000614565b5b50919050565b60008190508160005260206000209050919050565b60006020601f8301049050919050565b600082821b905092915050565b600060088302620006dc7fffffffffffffffffffffffffffffffffffffffffffffffffffffffffffffffff826200069d565b620006e886836200069d565b95508019841693508086168417925050509392505050565b6000819050919050565b60006200072b620007256200071f84620004f3565b62000700565b620004f3565b9050919050565b6000819050919050565b62000747836200070a565b6200075f620007568262000732565b848454620006aa565b825550505050565b600090565b6200077662000767565b620007838184846200073c565b505050565b5b81811015620007ab576200079f6000826200076c565b60018101905062000789565b5050565b601f821115620007fa57620007c48162000678565b620007cf846200068d565b81016020851015620007df578190505b620007f7620007ee856200068d565b83018262000788565b50505b505050565b600082821c905092915050565b60006200081f60001984600802620007ff565b1980831691505092915050565b60006200083a83836200080c565b9150826002028217905092915050565b6200085582620005da565b67ffffffffffffffff811115620008715762000870620005e5565b5b6200087d825462000643565b6200088a828285620007af565b600060209050601f831160018114620008c25760008415620008ad578287015190505b620008b985826200082c565b86555062000929565b601f198416620008d28662000678565b60005b82811015620008fc57848901518255600182019150602085019450602081019050620008d5565b868310156200091c578489015162000918601f8916826200080c565b8355505b6001600288020188555050505b505050505050565b6200093c816200054e565b82525050565b600060208201905062000959600083018462000931565b92915050565b7f4e487b7100000000000000000000000000000000000000000000000000000000600052601160045260246000fd5b60006200099b82620004f3565b9150620009a883620004f3565b9250828201905080821115620009c357620009c26200095f565b5b92915050565b620009d481620004f3565b82525050565b6000606082019050620009f1600083018662000931565b62000a006020830185620009c9565b62000a0f6040830184620009c9565b949350505050565b600060208201905062000a2e6000830184620009c9565b92915050565b6115438062000a446000396000f3fe6080604052600436106100f35760003560e01c806384d63e121161008a578063a9059cbb11610059578063a9059cbb14610323578063b4a99a4e14610360578063dd62ed3e1461038b578063f2fde38b146103c8576100f3565b806384d63e12146102845780638da5cb5b146102af57806395d89b41146102da578063a6f2ae3a14610305576100f3565b8063313ce567116100c6578063313ce567146101c857806340c10f19146101f357806370a0823114610230578063715018a61461026d576100f3565b806306fdde03146100f8578063095ea7b31461012357806318160ddd1461016057806323b872dd1461018b575b600080fd5b34801561010457600080fd5b5061010d6103f1565b60405161011a919061107d565b60405180910390f35b34801561012f57600080fd5b5061014a60048036038101906101459190611138565b610483565b6040516101579190611193565b60405180910390f35b34801561016c57600080fd5b506101756104a6565b60405161018291906111bd565b60405180910390f35b34801561019757600080fd5b506101b260048036038101906101ad91906111d8565b6104b0565b6040516101bf9190611193565b60405180910390f35b3480156101d457600080fd5b506101dd6104df565b6040516101ea9190611247565b60405180910390f35b3480156101ff57600080fd5b5061021a60048036038101906102159190611138565b6104e8565b6040516102279190611193565b60405180910390f35b34801561023c57600080fd5b5061025760048036038101906102529190611262565b61057f565b60405161026491906111bd565b60405180910390f35b34801561027957600080fd5b506102826105c7565b005b34801561029057600080fd5b506102996105db565b6040516102a6919061129e565b60405180910390f35b3480156102bb57600080fd5b506102c46105ea565b6040516102d1919061129e565b60405180910390f35b3480156102e657600080fd5b506102ef610614565b6040516102fc919061107d565b60405180910390f35b61030d6106a6565b60405161031a91906111bd565b60405180910390f35b34801561032f57600080fd5b5061034a60048036038101906103459190611138565b610741565b6040516103579190611193565b60405180910390f35b34801561036c57600080fd5b50610375610764565b604051610382919061129e565b60405180910390f35b34801561039757600080fd5b506103b260048036038101906103ad91906112b9565b610773565b6040516103bf91906111bd565b60405180910390f35b3480156103d457600080fd5b506103ef60048036038101906103ea9190611262565b6107fa565b005b60606003805461040090611328565b80601f016020809104026020016040519081016040528092919081815260200182805461042c90611328565b80156104795780601f1061044e57610100808354040283529160200191610479565b820191906000526020600020905b81548152906001019060200180831161045c57829003601f168201915b5050505050905090565b60008061048e610880565b905061049b818585610888565b600191505092915050565b6000600254905090565b6000806104bb610880565b90506104c885828561089a565b6104d385858561092e565b60019150509392505050565b60006012905090565b60006104f2610a22565b3073ffffffffffffffffffffffffffffffffffffffff168373ffffffffffffffffffffffffffffffffffffffff16148061052c5750600082115b61056b576040517f08c379a0000000000000000000000000000000000000000000000000000000008152600401610562906113a5565b60405180910390fd5b6105758383610aa9565b6001905092915050565b60008060008373ffffffffffffffffffffffffffffffffffffffff1673ffffffffffffffffffffffffffffffffffffffff168152602001908152602001600020549050919050565b6105cf610a22565b6105d96000610b2b565b565b60006105e5610880565b905090565b6000600560009054906101000a900473ffffffffffffffffffffffffffffffffffffffff16905090565b60606004805461062390611328565b80601f016020809104026020016040519081016040528092919081815260200182805461064f90611328565b801561069c5780601f106106715761010080835404028352916020019161069c565b820191906000526020600020905b81548152906001019060200180831161067f57829003601f168201915b5050505050905090565b6000343373ffffffffffffffffffffffffffffffffffffffff1631101580156106d0575060003414155b61070f576040517f08c379a000000000000000000000000000000000000000000000000000000000815260040161070690611411565b60405180910390fd5b60006103e83461071f9190611460565b905061073a61072c6105ea565b610734610880565b8361092e565b8091505090565b60008061074c610880565b905061075981858561092e565b600191505092915050565b600061076e6105ea565b905090565b6000600160008473ffffffffffffffffffffffffffffffffffffffff1673ffffffffffffffffffffffffffffffffffffffff16815260200190815260200160002060008373ffffffffffffffffffffffffffffffffffffffff1673ffffffffffffffffffffffffffffffffffffffff16815260200190815260200160002054905092915050565b610802610a22565b600073ffffffffffffffffffffffffffffffffffffffff168173ffffffffffffffffffffffffffffffffffffffff16036108745760006040517f1e4fbdf700000000000000000000000000000000000000000000000000000000815260040161086b919061129e565b60405180910390fd5b61087d81610b2b565b50565b600033905090565b6108958383836001610bf1565b505050565b60006108a68484610773565b90507fffffffffffffffffffffffffffffffffffffffffffffffffffffffffffffffff81146109285781811015610918578281836040517ffb8f41b200000000000000000000000000000000000000000000000000000000815260040161090f939291906114a2565b60405180910390fd5b61092784848484036000610bf1565b5b50505050565b600073ffffffffffffffffffffffffffffffffffffffff168373ffffffffffffffffffffffffffffffffffffffff16036109a05760006040517f96c6fd1e000000000000000000000000000000000000000000000000000000008152600401610997919061129e565b60405180910390fd5b600073ffffffffffffffffffffffffffffffffffffffff168273ffffffffffffffffffffffffffffffffffffffff1603610a125760006040517fec442f05000000000000000000000000000000000000000000000000000000008152600401610a09919061129e565b60405180910390fd5b610a1d838383610dc8565b505050565b610a2a610880565b73ffffffffffffffffffffffffffffffffffffffff16610a486105ea565b73ffffffffffffffffffffffffffffffffffffffff1614610aa757610a6b610880565b6040517f118cdaa7000000000000000000000000000000000000000000000000000000008152600401610a9e919061129e565b60405180910390fd5b565b600073ffffffffffffffffffffffffffffffffffffffff168273ffffffffffffffffffffffffffffffffffffffff1603610b1b5760006040517fec442f05000000000000000000000000000000000000000000000000000000008152600401610b12919061129e565b60405180910390fd5b610b2760008383610dc8565b5050565b6000600560009054906101000a900473ffffffffffffffffffffffffffffffffffffffff16905081600560006101000a81548173ffffffffffffffffffffffffffffffffffffffff021916908373ffffffffffffffffffffffffffffffffffffffff1602179055508173ffffffffffffffffffffffffffffffffffffffff168173ffffffffffffffffffffffffffffffffffffffff167f8be0079c531659141344cd1fd0a4f28419497f9722a3daafe3b4186f6b6457e060405160405180910390a35050565b600073ffffffffffffffffffffffffffffffffffffffff168473ffffffffffffffffffffffffffffffffffffffff1603610c635760006040517fe602df05000000000000000000000000000000000000000000000000000000008152600401610c5a919061129e565b60405180910390fd5b600073ffffffffffffffffffffffffffffffffffffffff168373ffffffffffffffffffffffffffffffffffffffff1603610cd55760006040517f94280d62000000000000000000000000000000000000000000000000000000008152600401610ccc919061129e565b60405180910390fd5b81600160008673ffffffffffffffffffffffffffffffffffffffff1673ffffffffffffffffffffffffffffffffffffffff16815260200190815260200160002060008573ffffffffffffffffffffffffffffffffffffffff1673ffffffffffffffffffffffffffffffffffffffff168152602001908152602001600020819055508015610dc2578273ffffffffffffffffffffffffffffffffffffffff168473ffffffffffffffffffffffffffffffffffffffff167f8c5be1e5ebec7d5bd14f71427d1e84f3dd0314c0f7b2291e5b200ac8c7c3b92584604051610db991906111bd565b60405180910390a35b50505050565b600073ffffffffffffffffffffffffffffffffffffffff168373ffffffffffffffffffffffffffffffffffffffff1603610e1a578060026000828254610e0e91906114d9565b92505081905550610eed565b60008060008573ffffffffffffffffffffffffffffffffffffffff1673ffffffffffffffffffffffffffffffffffffffff16815260200190815260200160002054905081811015610ea6578381836040517fe450d38c000000000000000000000000000000000000000000000000000000008152600401610e9d939291906114a2565b60405180910390fd5b8181036000808673ffffffffffffffffffffffffffffffffffffffff1673ffffffffffffffffffffffffffffffffffffffff16815260200190815260200160002081905550505b600073ffffffffffffffffffffffffffffffffffffffff168273ffffffffffffffffffffffffffffffffffffffff1603610f365780600260008282540392505081905550610f83565b806000808473ffffffffffffffffffffffffffffffffffffffff1673ffffffffffffffffffffffffffffffffffffffff168152602001908152602001600020600082825401925050819055505b8173ffffffffffffffffffffffffffffffffffffffff168373ffffffffffffffffffffffffffffffffffffffff167fddf252ad1be2c89b69c2b068fc378daa952ba7f163c4a11628f55a4df523b3ef83604051610fe091906111bd565b60405180910390a3505050565b600081519050919050565b600082825260208201905092915050565b60005b8381101561102757808201518184015260208101905061100c565b60008484015250505050565b6000601f19601f8301169050919050565b600061104f82610fed565b6110598185610ff8565b9350611069818560208601611009565b61107281611033565b840191505092915050565b600060208201905081810360008301526110978184611044565b905092915050565b600080fd5b600073ffffffffffffffffffffffffffffffffffffffff82169050919050565b60006110cf826110a4565b9050919050565b6110df816110c4565b81146110ea57600080fd5b50565b6000813590506110fc816110d6565b92915050565b6000819050919050565b61111581611102565b811461112057600080fd5b50565b6000813590506111328161110c565b92915050565b6000806040838503121561114f5761114e61109f565b5b600061115d858286016110ed565b925050602061116e85828601611123565b9150509250929050565b60008115159050919050565b61118d81611178565b82525050565b60006020820190506111a86000830184611184565b92915050565b6111b781611102565b82525050565b60006020820190506111d260008301846111ae565b92915050565b6000806000606084860312156111f1576111f061109f565b5b60006111ff868287016110ed565b9350506020611210868287016110ed565b925050604061122186828701611123565b9150509250925092565b600060ff82169050919050565b6112418161122b565b82525050565b600060208201905061125c6000830184611238565b92915050565b6000602082840312156112785761127761109f565b5b6000611286848285016110ed565b91505092915050565b611298816110c4565b82525050565b60006020820190506112b3600083018461128f565b92915050565b600080604083850312156112d0576112cf61109f565b5b60006112de858286016110ed565b92505060206112ef858286016110ed565b9150509250929050565b7f4e487b7100000000000000000000000000000000000000000000000000000000600052602260045260246000fd5b6000600282049050600182168061134057607f821691505b602082108103611353576113526112f9565b5b50919050565b7f4661696c656420746f20696e697469616c697a652074686520616d6f756e742e600082015250565b600061138f602083610ff8565b915061139a82611359565b602082019050919050565b600060208201905081810360008301526113be81611382565b9050919050565b7f4661696c656420746f2062757920746f6b656e73000000000000000000000000600082015250565b60006113fb601483610ff8565b9150611406826113c5565b602082019050919050565b6000602082019050818103600083015261142a816113ee565b9050919050565b7f4e487b7100000000000000000000000000000000000000000000000000000000600052601160045260246000fd5b600061146b82611102565b915061147683611102565b925082820261148481611102565b9150828204841483151761149b5761149a611431565b5b5092915050565b60006060820190506114b7600083018661128f565b6114c460208301856111ae565b6114d160408301846111ae565b949350505050565b60006114e482611102565b91506114ef83611102565b925082820190508082111561150757611506611431565b5b9291505056fea26469706673582212209fb67e0586d03ace210391f31ba6e4346cca15983cdf88baadd5882bc209a0db64736f6c63430008140033",
  "linkReferences": {},
  "deployedLinkReferences": {}
}